:020000040800F2
:100000001035002045010008F11500087D0D00089D
:1000100095150008D70A0008092A0008000000000A
:10002000000000000000000000000000F9210008AE
:10003000D90A000800000000A117000815250008D3
:100040005F0100085F0100085F0100085F01000810
:100050005F0100085F0100085F0100085F01000800
:100060005F0100085F0100085F0100085F010008F0
:100070005F0100085F0100085F0100085F010008E0
:100080005F0100085F0100085F0100085F010008D0
:100090005F0100085F0100085F0100085F010008C0
:1000A0005F0100085F0100085F0100085F010008B0
:1000B000752600085F0100085F0100085F01000865
:1000C0005F0100085F0100085F0100085F01000890
:1000D0005F010008352800085F0100085F01000883
:1000E0005F0100085F0100085F0100085F01000870
:1000F0005F0100085F0100085F0100085F01000860
:100100005F0100085F0100085F0100085F0100084F
:100110005F0100085F0100085F0100085F0100083F
:100120005F0100085F0100085F0100085F0100082F
:10013000DFF80CD000F042FA00480047592A0008C6
:10014000103500200648804706480047FEE7FEE7D6
:10015000FEE7FEE7FEE7FEE7FEE7FEE7FEE7FEE777
:1001600095250008310100082DE9F05F05460020C3
:1001700092469B4688460646814640241BE0284618
:1001800041464746224600F07FF953465A46C01A78
:10019000914110D311461846224600F066F92D1AF7
:1001A00067EB01084F4622460120002100F05DF96F
:1001B00017EB00094E41201EA4F10104DFDC484684
:1001C00031462A464346BDE8F09F421C10F8011B09
:1001D0000029FBD1801A704710B5002200E0521CA4
:1001E000835C8C5CA34201D1002BF8D1D8B2E1B280
:1001F000401A10BD0246C9B200E0401C0378002B33
:10020000FBD102E003788B4203D0401E9042F9D22A
:10021000002070472DE9F05F93460F468046044664
:10022000002602F005FCD0F80090824614F8015B2D
:100230002DB100F039F90068405DC007F6D12B2DD3
:1002400002D02D2D1AD0641E0021CAF800105A4683
:100250003946204600F02CF9014627B13868A04203
:1002600001D1C7F80080DAF80000022809D0CAF8E6
:100270000090700505D54842BDE8F09F46F48066C1
:10028000E2E70846F8E7F0B480EA0102D40F420042
:10029000B2EB410F02D20246084611464A0042D054
:1002A000C30DDDB2C1F3C752AD1A202D35DAC1F34B
:1002B000160141F4000204B15242C5F1200602FACF
:1002C00006F12A411044B3EBD05F23D0C4B1012D15
:1002D000A0EBC35009DCF0BC4FF0004202EAC3526D
:1002E000DBB200F5000000F03BB9400000F1807087
:1002F00000EBC350A0F1807040EAD170490009E0E2
:10030000490841EAC071A0EBC35000F50000400865
:1003100000EBC350F0BC00F01AB96142012202EBBD
:100320004101001BF6E7F0BC704781F00041AAE7ED
:1003300080F00040A7E780EA010210B502F0004318
:10034000400022D04A001FD0010E01EB1261C0F321
:100350005600C2F3560240F4000042F40002A0FB33
:10036000022000047F39140400D0401C50EA1240DF
:1003700001D44000491EC2B20C0604EBD010401C50
:100380004008802A02D003E0002010BD20F00100C8
:10039000002900DA0020184310BD30B480EA0102C1
:1003A00002F0004530F0004221F0004013D090B13F
:1003B000C30DD40DC2F31601C0F31600E41A41F4C4
:1003C000000140F400027D34914201D3641C00E03E
:1003D0004900002C02DA30BC002070474FF40000C6
:1003E0000023914201D3891A034340084FEA410197
:1003F000F7D151B1914202D14FF0004105E002D254
:100400004FF0010101E06FF0010103EBC4502844FB
:1004100030BC00F09CB8420005D0C0F3C752524235
:10042000914201DC0020704700EBC15070479623D9
:100430000022114600F094B800F0004220F0004085
:10044000C10DC0F3160040F400007F2901DA00203E
:100450007047962903DCC1F19601C84001E0963946
:100460008840002AF4D040427047202A04DB203A1A
:1004700000FA02F1002070479140C2F1200320FAF7
:1004800003F3194390407047202A04DB203A21FAF5
:1004900002F00021704721FA02F3D040C2F120029D
:1004A000914008431946704700487047FC8A00088D
:1004B0002DE9F05F82460078002715468B460AF149
:1004C0000104B946302801D09DB113E014F8010BA6
:1004D0000127782803D0582801D045B10AE00DB192
:1004E000102D07D10027102514F8010B02E0082574
:1004F00000E00A250026B0460EE005FB080005FBDB
:1005000006F1012701EB10461FFA80F8B6F5803F8F
:1005100000D3B94614F8010B294600F061F8002811
:10052000EBDABBF1000F05D00FB1641E00E05446BA
:10053000CBF80040B9F1000F06D002F079FA0221A1
:100540000160C81EBDE8F09F48EA0640FAE70029AE
:10055000A8BF7047401C490008BF20F00100704749
:1005600010B4B0FA80FC00FA0CF050EA010404BFA9
:1005700010BC704749B1CCF1200421FA04F411FAFF
:100580000CF118BF012121430843A3EB0C01CB1D43
:100590004FEA00614FEA102042BF002010BC7047B4
:1005A00000EBC35010440029A4BF10BC7047401C8E
:1005B000490008BF20F0010010BC7047064C074DF1
:1005C00006E0E06840F0010394E807009847103423
:1005D000AC42F6D3FFF7B0FD088B0008288B00086B
:1005E0003A2800D2303820F02002412A01D3A2F16B
:1005F0003700884201D34FF0FF3070472DE9FC47A8
:10060000424C002020704FF490694946012000F0D0
:10061000BFF9002873D041F276252946032000F067
:10062000C2F900286BD048F2AC163146092000F020
:10063000AFF9002863D04FF4C27A5146192000F078
:10064000A7F900285BD03249212000F0ACF9E8B3CB
:1006500049F2A40739460A2000F09AF9B0B340F6EF
:10066000821841461A2000F093F978B328492220D5
:10067000203900F098F948B3142000F02EFA00F069
:1006800049F8D8B3FF283CD001A9012000F0C8F8F0
:1006900088B3BDF8040048452DD16946032000F019
:1006A000D1F840B30098A84225D101A9092000F053
:1006B000B7F800B3BDF80400B0421CD101A90A206C
:1006C00000F0AEF8B8B1BDF8040000E017E0B842A1
:1006D00011D101A9192000F0A3F860B1BDF8040000
:1006E000504508D101A91A2000F09AF818B1BDF8B8
:1006F0000400404507D00020BDE8FC8701E0002051
:10070000FAE70020F8E701202070F5E72E0000202E
:10071000A000060008B5FF200090012269460520D0
:1007200000F0A6F810B19DF8000008BDFF2008BD3C
:100730007CB505460E46802001900024002D10D186
:1007400002207CBD012201A9002000F091F880B1B7
:100750009DF80400000606D5012000F0BEF9641CD7
:10076000A4B2B442EED39DF80400000603D50120E4
:100770007CBD02207CBD04226946022000F078F88E
:10078000C8B19DF800009DF80110000440EA012066
:100790009DF80210084328609DF8030028719DF819
:1007A000030000F00F0068719DF8030010F0500F77
:1007B00003D003207CBD02207CBD00207CBD000056
:1007C00038B5154900200870144D1021284600F056
:1007D0006DFA00246946FF2001F03EFC78B1641CEC
:1007E000E4B2082CF6D301F063FC70B11021284666
:1007F00000F05EFA022000F070F9012038BD1021EF
:10080000284600F055FA002038BD1021284600F097
:100810004FFA002038BD00002E00002000080140E3
:1008200038B50C460222694600F022F840B19DF826
:1008300001009DF8002040EA02202080012038BD00
:10084000002038BD38B50C460322694600F010F888
:1008500060B19DF800009DF80120000440EA0220EC
:100860009DF8022010432060012038BD002038BDD3
:10087000F8B504460D461646164F1021384600F0CE
:1008800015FA022000F036F904F03F0040F0400075
:10089000694601F0E1FBB0B1002406E02919FF2010
:1008A00001F0DAFB78B1641CE4B2B442F6D301F093
:1008B000FFFB40B1022000F01DF91021384600F086
:1008C000F7F90120F8BD1021384600F0F1F90020B9
:1008D000F8BD00000008014030B587B0012141F2A9
:1008E000040001F08BF9A020ADF8180018208DF855
:1008F0001B0003248DF81A40234D06A9284600F05A
:100900007BF94021ADF8181004218DF81B1006A9C1
:10091000284600F071F91021ADF818108DF81B1061
:100920008DF81A4006A9284600F066F910212846DD
:1009300000F0BEF90020ADF804004FF48271ADF86C
:100940000610ADF808000221ADF80A100121ADF83B
:100950000C104902ADF80E102821ADF81010ADF8BA
:1009600012000720ADF81400084C01A9204601F040
:10097000FCFBA115204601F014FC0121204601F0EA
:10098000ABFB07B030BD0000000801400030014063
:1009900008B50A0A8DF800208DF801100222694678
:1009A00000F010F808BD08B50A0C8DF800200A0AFE
:1009B0008DF801208DF802100322694600F002F83C
:1009C00008BD0000F8B504460D461646154F102127
:1009D000384600F06BF9022000F08CF804F03F007C
:1009E000694601F039FBB0B1002406E0285D694694
:1009F00001F032FB78B1641CE4B2B442F6D301F0EA
:100A000057FB40B1022000F075F81021384600F085
:100A10004FF90120F8BD1021384600F049F90020B7
:100A2000F8BD00000008014090F87220002A06D0AE
:100A3000B0F870206F2A03D3002180F8721070473D
:100A4000531CA0F870308154704770B506460D46AF
:100A50001C2425FA04F0C0B200F091F9014630469A
:100A6000FFF7E2FF241F64B2002CF2DA70BD70B50C
:100A700005460C46002C07D1002085F8720070BD99
:100A8000641C2846FFF7D0FF21780029F8D170BDFB
:100A9000FEB5064600240A226D46B1FBF2F002FBC9
:100AA000101030302346641CE4B2E854B1FBF2F17C
:100AB00041B10A2CF1D305E0641EE4B23046295D51
:100AC000FFF7B2FF002CF7D1FEBD002120F8701F08
:100AD000012181707047FEE7704730B504464FF43E
:100AE0007A7502E0284600F005F8641E601CF9D112
:100AF00030BD0000F0B5002826D01449144A09681A
:100B0000B1FBF2F202B901226FF07F41B1FBF2F1C9
:100B100001B9012100264FF0E02405274FF0040C15
:100B200010E0884201D90B4600E0034602FB03F5C2
:100B30006D1E6561A66127612569ED03FCD5C4F8CA
:100B400010C0C01A0028ECD1F0BD00000000002049
:100B500040420F0010B57D2001F0CAF8194C30B1A9
:100B600019A0E063206940F40070206125E07E2038
:100B700001F0BEF830B116A0E063206940F40070C7
:100B800020611AE07C2001F0B3F810B112A0E063FC
:100B900013E07B2001F0ACF810B112A0E0630CE090
:100BA0007A2001F0A5F810B10FA0E06305E07F20E6
:100BB00001F09EF808B10DA0E063BDE8104001F01F
:100BC00039B800003C0000204957444700000000AD
:100BD0005757444700000000534F46545741524571
:100BE00000000000504F520050494E004C4F575FDC
:100BF000504F5745520000002DE9F0410022CC78BB
:100C000004F00F03E40601D58C7823430C784FF0F1
:100C10000F0714F0FF0F4FF0010C1CD005680CFA01
:100C200002F40E882640A64211D1960007FA06F873
:100C300025EA080503FA06F848EA0505CE78282EC5
:100C400002D0482E02D002E0446100E00461521C50
:100C5000082AE4D305600A88FF2A1ED945680022C5
:100C600002F108060CFA06F40E882640A64210D1BE
:100C7000960007FA06F825EA080503FA06F848EA96
:100C80000505CE78282E00D14461CE78482E00D1BB
:100C90000461521C082AE3D34560BDE8F081024696
:100CA000002092680A4200D00120704741617047DD
:100CB0000161704730B587B001AD1E4C22E01EA126
:100CC000281DFFF789FA10B99DF8180028B11CA15A
:100CD000281DFFF781FA38B109E001981BA216A17F
:100CE000236900F0DDFD0DE09DF8180088B11AA120
:100CF000281DFFF771FAA8B1019819A2291D2369CF
:100D000000F092FE01A800F08DFD0028D7D107B0B9
:100D100030BD01980BA20AA1236900F0C1FD01F0CA
:100D20009BFAEFE7019812A20BA1236900F07CFE69
:100D3000E8E700003C00002050494E47000000005A
:100D40004745545F494E464F000000003030303078
:100D500030303030000000005A45524F0000000093
:100D6000455F554E4B4E4F574E5F434D440000007C
:100D7000455F4E4F545F534146450000FEE700F08B
:100D80000F000A2802D23030C0B270473730C0B2EC
:100D90007047A0F13001092901D808467047A0F139
:100DA0004101052901D837387047A0F161010529B3
:100DB00001D8573870474FF0FF30704702494CF662
:100DC000CC400860704700000030004002494AF6FD
:100DD000AA200860704700000030004001494860C8
:100DE00070470000003000400149886070470000F3
:100DF00000300040014908607047000000300040AA
:100E000010B500F061F81E490120087000F06EF97D
:100E100000F016FB3220FFF760FE00F08DF800F0C6
:100E2000A5F83220FFF759FE00F086F83220FFF7D0
:100E300054FE00F0A1FB134B13A200215A2000F036
:100E4000DDFA4B210F4B15A2084600F0D7FA0D4BE7
:100E500017A27D213C2000F0D1FA1948094B7D21D1
:100E60000268CD2000F040FA064B16A27D214FF417
:100E7000A07000F0C3FABDE8104001F0C3B8000054
:100E80003600002020430008507265737375726548
:100E90004F5320312E302E35000000004C434420AB
:100EA0002F20554152542052454144590000000022
:100EB00053797374656D20636C6F636B3A00000047
:100EC00000000020487A000008B50121102000F041
:100ED00095FE48208DF803000720ADF800000320A0
:100EE0008DF8020069460248FFF786FE08BD000043
:100EF0000010014070B50F4D01212846FFF7CFFECD
:100F000088B1002402212846FFF7C9FE68B10020FD
:100F100044EA400404212846FFF7C1FE38B100200E
:100F200044EA800070BD0124ECE70120F0E70120D5
:100F3000F6E700000010014010B50B4C8021204660
:100F4000FFF7B6FE3220FFF7D5FD202000F002FBB0
:100F5000002000F0FFFA3220FFF7CCFD2046BDE86C
:100F600010408021FFF7A2BE0010014030B58DB0C7
:100F70000121022000F026FE08A800F063FE0A9876
:100F80001949496811F4E06F00D0400042F2107135
:100F9000B0FBF1F000B90120401EADF8140042F2A0
:100FA0000F70ADF818000024ADF81A40ADF81640E7
:100FB0000E4D05A9284601F0CBFB6021ADF80410C9
:100FC0000121ADF8061041F28831ADF80A10ADF8F4
:100FD0000C4001A9284601F087FB0121284601F0B9
:100FE00060FB0DB030BD0000001002400004004066
:100FF000F0B5904202D9504042405040994202D947
:1010000059404B405940364D00F007042E5D02F028
:10101000070408352F5D01EBC10404EB0114314DC9
:1010200000EB041405EBD404D208A2EBD00085B287
:101030002D480078D5B301280DD0F04300F0FF0C07
:10104000F843C7B22A462046067806EA0C0600F89E
:10105000016B00261CE02A46204690F800C04CEAAE
:10106000060C00F801CB4FF0FF0C01E000F801CBBB
:10107000521E1204120CF9D102783A430270323433
:101080000846491C89B29842E5D3F0BD00F8016BCF
:10109000521E1204120CF9D102783A400270323416
:1010A0000846491C89B29842CCD3F0BDFFE73E40C8
:1010B00001280BD0F043C2B22078104004F8320B64
:1010C0000846491C89B29842F6D3EEE720783043AF
:1010D00004F8320B0846491C89B29842F6D3E4E77B
:1010E000002D0008010200203600002038B5012143
:1010F000102000F083FD8020ADF8000010208DF856
:10110000030003208DF80200094C69462046FFF7D2
:1011100073FD80212046FFF7C9FD6115ADF8001071
:1011200018218DF8031069462046FFF765FD38BD8C
:101130000010014001EBC10202EB011100EB0111B3
:10114000C90842F6DF62914210D800F007000C4A4D
:1011500052F820000B4A114400EB41100A4909786B
:10116000012904D0022905D0002101607047012126
:1011700001607047016881F0010101607047000063
:10118000002E000801020020360000202DE9F04763
:10119000074688461879904202D85979914200D280
:1011A0009A799968101A9A7800FB0214D87820B1BD
:1011B0001878092865D2C1465EE05878092819D206
:1011C000B94612E0464614F8015B08E0E80703D090
:1011D00031464846FFF7AEFF6D08761CB6B2002DCB
:1011E000F4D109F101091FFA89F918783844484502
:1011F000E8D874E0BA4627E045461DE04FF00809FC
:1012000014F8016B76B915E0F00703D02946504673
:10121000FFF790FF76084EB16D1CADB2A9F1010940
:1012200009F0FF09B9F1000F06D0EDE705EB090061
:1012300085B201E00835ADB258784044A842DDD807
:101240000AF1010A1FFA8AFA187838445045D3D8AF
:1012500045E03E4614F8015B08E0E80703D0494644
:101260003046FFF767FF6D08761CB6B2002DF4D14B
:1012700009F101091FFA89F9587840444845E8D82E
:101280002DE0C24627E03D461DE04FF0080914F866
:10129000016B76B915E0F00703D051462846FFF7F9
:1012A00049FF76084EB16D1CADB2A9F1010909F0F4
:1012B000FF09B9F1000F06D0EDE705EB090085B293
:1012C00001E00835ADB218783844A842DDD80AF1FB
:1012D000010A1FFA8AFA587840445045D3D8187842
:1012E000401CC0B2BDE8F0872DE9FE4106460F461E
:1012F00098466C460023354600208DF80000641C9B
:10130000002A01DA012352420A2092FBF0F100FB8D
:101310001121303104F8011B92FBF0F2002AF4D1C4
:1013200053B12D2004F8010B06E043463946284608
:10133000FFF72CFF284485B214F8012D002AF4D1C0
:10134000A81BC0B2BDE8FE812DE9FE4F8146DDF845
:1013500030A088461F466C46002300254E460020DC
:101360008DF80000641C002A01DA012352420A2091
:1013700092FBF0F100FB1121303104F8011B6D1CD0
:10138000EDB292FBF0F2002AF2D1BD4207D8302034
:1013900003E004F8010B6D1CEDB2BD42F9D91BB39B
:1013A0002D2004F8010B6D1CEDB21DE053464146A3
:1013B0003046FFF7EBFE304486B2AFB16D1EEDB2A2
:1013C000BD4211D19AF80110A8F10700084483B278
:1013D000F01C834682B2A8F10500084481B2304671
:1013E000FFF706FE1FFA8BF614F8012D002ADDD157
:1013F000A6EB0900C0B2BDE8FE8F00002DE9F04366
:1014000007468946154698463C460C4998F8000020
:101410004988081A401E86B209E06D1C43464946B9
:101420002046FFF7B3FE204484B2B44202D82A78A3
:10143000002AF2D1E01B80B2BDE8F0833600002024
:1014400070B58CB00121880300F0BCFB012108209D
:1014500000F0D4FB4FF42040ADF8180018258DF8AB
:101460001B5003208DF81A0006A93148FFF7C4FB72
:10147000304E304600F03CFEE802ADF804004FF478
:101480008270ADF806000024ADF80840ADF80A40BF
:10149000ADF80C407015ADF80E0007A800F0D2FBB7
:1014A00025490998884202D8ADF8104031E0234917
:1014B0000998884203D80820ADF8100029E0204997
:1014C0000998884203D81020ADF8100021E01D498A
:1014D0000998884202D8ADF810501AE01A490998C4
:1014E000884203D82020ADF8100012E0174909986F
:1014F000884203D82820ADF810000AE01449099862
:10150000884203D83020ADF8100002E03820ADF852
:101510001000ADF812400720ADF8140001A93046C4
:1015200000F023FE0121304600F0D6FD0CB070BD66
:10153000000C014000380040019F2400033E490098
:10154000077C92000FF824011FF049023FE093044A
:101550007FC0270970B50546064C0221204600F0E1
:10156000F9FD0028F9D029462046BDE8704000F07A
:10157000FABD000000380040054842F6E061002254
:1015800001E000F8012B491E4B1CFAD17047000006
:1015900001020020FEE7000070B500242546134A32
:1015A0000146114E107846F82010401C0A21B0FB6D
:1015B000F1F301FB1300107050780A2801D2401C8F
:1015C000507000200021527805E056F820301C1998
:1015D0004D41401CC0B29042F7D30023204629461B
:1015E000FEF7C2FD70BD0000E43000203C0000208A
:1015F0007047000070B50F23C27801260178002AD9
:101600001ED0144A126802F4E062C2F5E062120AC7
:10161000C2F10404D3404578A54082781A402A4399
:10162000120101F1E02181F80024007800F01F018F
:101630008E404009800000F1E020C0F8006170BDDC
:1016400001F01F0086404809800000F1E020C0F84A
:10165000806170BD0CED00E002490843024908605A
:10166000704700000000FA050CED00E0F0B58BB00B
:101670000646002E07D03A4840880C2803D3394C40
:101680002178402902D000200BB0F0BD002727545C
:101690002A213448FEF7AEFD0546B5B1681CFEF7B9
:1016A00094FD042811D101A9681C00F061F860B113
:1016B0002046291A491E89B2601C00F08DF8BDF839
:1016C0000410884203D00020DEE70020DCE72F7002
:1016D000641C012503AA039409E02C2806D1277075
:1016E000601C29466D1CEDB242F82100641C207874
:1016F00008B1082DF1D3042D09D31BA10398FEF7DF
:101700006BFD20B919A10498FEF766FD08B1002011
:10171000BAE70A2202A90598FEF77CFD0599097827
:1017200011B10299097809B10020ADE730602D1F91
:10173000357500200699095C59B1A1F16102192A99
:1017400001D82039C9B232181171401CC0B20F281B
:10175000F0D3304407713079002895D0012093E709
:101760003000002080010020505331004300000071
:101770002DE9F04106460F4600250024305DFFF7B5
:1017800008FB002802DA0020BDE8F08140EA0510DD
:1017900085B2641CE4B2042CF0D33D800120F3E751
:1017A0007047000010B5FEF742FE04460749204688
:1017B000FEF7C1FD0649FEF766FD2146FEF7BBFDBB
:1017C000BDE810400349FEF7B0BD00005CFEA22A50
:1017D000EFB05A393ECBCC42F0B506464FF6FF701B
:1017E000002341F22105044611E0F25C80EA022068
:1017F0000022070403D585EA400080B201E004EA34
:101800004000521CD2B2082AF3D35B1C9BB28B421D
:10181000EBD3F0BD02480021418001707047000009
:1018200030000020F8B50746002F05D000F0F4FD89
:10183000194C002528B901E00020F8BD00F0E4FDB6
:1018400008B165802570154E20E09DF800104029F4
:101850000BD02078D0B10D2918D00A290BD062887E
:10186000802A10D36580257010E00120207040216F
:10187000608031700AE03846FFF7F8FE6580257019
:1018800020B10120F8BD501C6080B154684600F0C2
:1018900075FD0028D9D1F8BD30000020800100205E
:1018A000F0B59DB007460E4614461D466846FFF744
:1018B0000CF912A16846FFF7DAF839466846FFF7D7
:1018C000E7F82C216846FFF7AFF831466846FFF786
:1018D000CEF80CA16846FFF7CAF821466846FFF724
:1018E000C6F82C216846FFF79FF829466846FFF79F
:1018F000ACF8684600F082FC1DB0F0BD5053312CAE
:10190000412C00002C4F4B2C000000002DE9F0472B
:101910009EB08246DDE92789269F0E4614461D4665
:1019200001A8FFF7D2F81FA101A8FFF7A0F85146C0
:1019300001A8FFF7ADF82C2101A8FFF775F8314693
:1019400001A8FFF7A5F82C2101A8FFF76DF82146A3
:1019500001A8FFF78CF82C2101A8FFF765F82946AC
:1019600001A8FFF784F82C2101A8FFF75DF839469C
:1019700001A8FFF77CF82C2101A8FFF755F8414694
:1019800001A8FFF774F82C2101A8FFF74DF849468C
:1019900001A8FFF75AF801A800F030FC1EB0BDE81E
:1019A000F08700005053312C492C00002DE9F04104
:1019B0009EB08046249F0E4614461D4601A8FFF7A0
:1019C00084F817A101A8FFF752F8414601A8FFF7D4
:1019D0005FF82C2101A8FFF727F8314601A8FFF78F
:1019E00057F82C2101A8FFF71FF8214601A8FFF79F
:1019F0004FF82C2101A8FFF717F8294601A8FFF797
:101A000047F82C2101A8FFF70FF8394601A8FFF786
:101A10001CF801A800F0F2FB1EB0BDE8F081000048
:101A20005053312C4D2C0000F0B59DB007460E46AA
:101A300014461D466846FFF748F812A16846FFF7AE
:101A400016F839466846FFF723F82C216846FEF75A
:101A5000EBFF31466846FFF70AF82C216846FEF78F
:101A6000E3FF21466846FFF702F82C216846FEF79F
:101A7000DBFF29466846FEF7E8FF684600F0BEFB3C
:101A80001DB0F0BD5053312C4E2C000070B5194CD8
:101A9000A0610125A570226922F034022261002391
:101AA0006371002904D1012802D91349884207D360
:101AB00042F0040020616571BDE8704000F07ABA20
:101AC000FFF76AFD2062FFF76DFE6063E5700B496A
:101AD000884204DD206940F01000206106E00849DA
:101AE000884203D9206940F020002061BDE87040A1
:101AF00000F060BA3C000020FEFFFF00000016442A
:101B00000000C8C270B505460E46154CE56100F0F0
:101B100075FF6062206920F0480020610020A071FC
:101B2000284600F025F8012156B9012D08D90D4AA3
:101B3000954205D20C4A904202D80C4A904208DDE8
:101B4000206940F008002061A171BDE8704000F0FC
:101B500031BAA0632171BDE8704000F02BBA0000DB
:101B60003C000020FEFFFF000000A0C20000344344
:101B700010B5FEF75CFC6FF01601FEF74CFC4FF061
:101B80007E51FEF7D2FB6FF00101FEF744FC0849DD
:101B9000FEF7D1FB0749FEF700FC0749FEF7CBFB38
:101BA0000649FEF7C2FBBDE810400549FEF7F5BB4C
:101BB000C3F5283F00004843002474490000C84290
:101BC000B81EC53E054A002903D0D1690143D16141
:101BD0007047D1698143D161704700000010024015
:101BE000054A002903D01169014311617047116949
:101BF000814311617047000000100240054A00292E
:101C000003D091690143916170479169814391616A
:101C10007047000000100240054A002903D0D16837
:101C20000143D1607047D1688143D16070470000A3
:101C3000001002400248416A41F0807141627047E1
:101C40000010024010B5264A516801F00C01254BE6
:101C5000002927D0042927D0082927D003605168FC
:101C600001F0F0010909204B5C5C0168E140416032
:101C7000546804F4E064240A1C5D21FA04F48460CE
:101C8000546804F46054E40A1B5DD940C160526892
:101C900002F44042920B144B1B1F9A5CB1FBF2F111
:101CA000016110BD0360DAE70360D8E7516801F411
:101CB0007011536803F48033022404EB914133B173
:101CC00053689B0307D5094B59430160C7E7074B8E
:101CD00059430160C3E7034B59430160BFE700006C
:101CE0000010024000127A001800002000093D0098
:101CF000034600205909094A01290AD002290AD0BD
:101D0000516A03F01F02012393400B4200D00120CF
:101D100070471168F5E7116AF3E700000010024010
:101D200038B500F06BFE6C4CA16A411AB1F5FA7F30
:101D30007ED3A062694D00202870E6234FF4BE7266
:101D400028210A20FFF754F901202870E07848B3D1
:101D5000607A6349634D012866D0022869D06249E0
:101D6000606BFEF7E8FAFEF767FB024602233C21B0
:101D700046200095FFF7E8FA2B465CA23C21FA20AA
:101D8000FFF73CFB206940F28341084206D0554BE7
:101D900058A20C3BD7210A20FFF730FBBDE83840A2
:101DA00000F030B94F4B56A20C3B41213720FFF7D2
:101DB00025FB2069410507D54A4B57A20C3B7321EF
:101DC0004620FFF71BFB24E0C10707D0454B57A275
:101DD0000C3B73214120FFF711FB1AE0810707D567
:101DE000404B57A20C3B73215020FFF707FB10E03C
:101DF000400707D53B4B56A20C3B73214120FFF710
:101E0000FDFA06E0374B57A20C3B73215A20FFF72F
:101E1000F5FA344B57A20C3BAF212320FFF7EEFA23
:101E2000BDE8384000F0EEB8606BFEF784FA01E0E0
:101E300051E03DE0FEF700FB024602233C21642016
:101E40000095FFF781FA274B50A23C21FA20FFF7BB
:101E5000D5FA244B4EA20C3B82210A20FFF7CEFA82
:101E6000204B82210C3B5020226AFFF73DFA1D4B8C
:101E700049A20C3BAA210A20FFF7C0FA20790028CA
:101E800080D04849A06BFEF756FAFEF7D5FA024615
:101E9000144801230C380090AA219620FFF754FA29
:101EA000104B41A20C3BAA21E120FFF7A7FA69E7FA
:101EB000606BFEF740FAFEF7BFFA024601233C21B1
:101EC00064200095FFF740FA064B38A23C21FA2027
:101ED000FFF794FA56E738BD3C000020360000209A
:101EE0000000C8422C430008F3833B446D6D4867F3
:101EF00000000000414443205741524E494E4700E4
:101F000057616974696E6720666F7220414443208F
:101F1000646174610000000041444320434F4E4619
:101F20004947204552524F5200000000414443208F
:101F3000445244592054494D454F55540000000027
:101F400041444320535049204552524F5200000013
:101F5000505245535355524520494E56414C4944E1
:101F600000000000494E495449414C495A494E47E6
:101F700000000000436865636B2073656E736F72C9
:101F800020616E6420535049000000006B506100D6
:101F90004144433A00000000416D6269656E743A45
:101FA0000000000000002041430000006D626172EB
:101FB0000000000008494A7988790243C879024341
:101FC0000846006903D040F080000861704720F0A7
:101FD00080000861704700003C00002010B500F050
:101FE0000DFD0749CA78002A09D10A6B821AB2F599
:101FF0007A7F04D30863BDE8104000F02DB910BD0E
:102000003C0000202DE9F041104D114F8021384651
:10201000FEF74EFE8020FFF79DFA00240D4E305D46
:10202000FFF798FA3221284600F0CAF80020FFF79F
:1020300091FA3235641CF02CF1D30020FFF78AFAB4
:102040003846BDE8F0418021FEF730BE0102002095
:1020500000100140102D00082DE9F04180460E4689
:10206000114C2546114F01E05DB16D1E022138462D
:1020700000F070F80028F7D04146384600F073F8B9
:1020800004E00020BDE8F08164B1641E01213846FF
:1020900000F060F80028F7D0384600F062F83070A1
:1020A0000120EFE70020EDE7A086010000300140AD
:1020B00070B5074C074D01E044B1641E80212846ED
:1020C00000F048F80128F7D0012070BD002070BD55
:1020D000A086010000300140002904D0018841F0B1
:1020E000400101807047018821F040010180704764
:1020F00010B5154988420AD1841401212046FFF702
:102100008BFD2046BDE810400021FFF785BD0F493B
:1021100088420AD1041401212046FFF761FD2046C0
:10212000BDE810400021FFF75BBD094988420AD194
:10213000C41301212046FFF753FD2046BDE810409F
:102140000021FFF74DBD10BD0030014000380040B8
:10215000003C00400246002012890A4200D00120C3
:102160007047808970478181704730B5028802F4DA
:1021700041530A884C88CD8822438C882C432243C3
:102180000C8922434C8922438C892243CC892243E7
:102190001A430280828B22F400628283098A0182C0
:1021A00030BDA1F57E42FF3A04D0018841F4807130
:1021B00001807047018821F4807101807047000020
:1021C00070B504460D460B4E0AE002213046FFF77B
:1021D000C1FF0028F9D014F8011B3046FFF7C3FFF8
:1021E0006D1E681CF1D180213046FFF7B3FF012836
:1021F000F9D070BD003800407047000070B504464B
:10220000002C25D094F8720010B3B4F87010F9B116
:102210002046FFF7E1FA0546402000F0D5F8B4F873
:102220007010204600F0C2F82A2000F0CDF80C24EF
:1022300025FA04F0C0B2FEF7A2FD00F0C5F8241F95
:1022400064B2002CF4DA03A000F0D4F8012070BDD1
:10225000002070BD0D0A00003EB500F0CFFB074C1A
:10226000014607A3E26B2069CDE90032029007A383
:1022700009A26069FFF74AFB3EBD00003C00002058
:102280004144373132342D380000000053544D336F
:102290003246313033524300312E302E35000000AB
:1022A0003EB500240A216D46B0FBF1F201FB12029B
:1022B00030322346641CE4B2EA54B0FBF1F038B18A
:1022C0000A2CF1D304E0641EE4B2285D00F07CF82F
:1022D000002CF8D13EBD000010B586B0012144F2BB
:1022E0000400FFF78BFC18208DF817004FF40070E6
:1022F000ADF8140003208DF816001E4C05A92046E9
:10230000FEF77AFC04218DF817100902ADF81410BD
:1023100005A92046FEF770FC4FF4E1300190002043
:10232000ADF810000C21ADF80E10ADF80C00ADF8B2
:102330000A00ADF80800104C01A9204600F0CEFAC2
:1023400025218DF8001001218DF801108DF8021063
:102350008DF803106846FFF74DF9012240F2255130
:10236000204600F0A0FA0121204600F089FA06B0CC
:1023700010BD00000008014000380140002804D0D2
:1023800008494A888B889A4201D100207047064A42
:102390008B88D25C02708888401CC0B28880012083
:1023A00070470000280000208000002070B505461E
:1023B0000E46002404E0285D00F006F8641CA4B278
:1023C000B442F8D370BD000070B5084C084D01460A
:1023D000284600F0E1FA02E0002C06D0641E8021BD
:1023E000284600F059FA0028F6D070BDA0860100FA
:1023F0000038014010B5044602E0641CFFF7E4FF1A
:1024000020780028F9D110BD0249487800224A708E
:1024100070470000280000200249087800220A7056
:102420007047000028000020AFF300800CB50022A8
:10243000019200922748016841F4803101604FF415
:10244000A063016801F4003100910199491C0191D8
:10245000009911B901999942F3D10168890302D514
:102460000121009100E000920099012930D11A4920
:102470000A6842F010020A600A6822F003020A6049
:102480000A6842F002020A604168416041684160A6
:10249000416841F480614160416821F47C114160F0
:1024A000416841F4E8114160016841F080710160C8
:1024B00001688901FCD5416821F003014160416850
:1024C00041F0020141604168C1F381010229FAD162
:1024D0000CBD0000001002400020024070B505460F
:1024E0000A4C00212170E1234FF4BE72A5210A207D
:1024F000FEF77EFD01212170054B2A46B4213720CD
:10250000FEF77CFFBDE87040FFF77CBD3600002081
:10251000204300087047000010B51A4A506800F0C8
:102520000C01194B194800290ED004290ED0082996
:102530000ED003605168154AC1F30311121D515C9E
:102540000268CA40026010BD0360F3E70360F1E770
:10255000516801F47011536803F48033022404EBD2
:10256000914133B153689B0307D5094B594301602F
:10257000E0E7074B59430160DCE7034B5943016037
:10258000D8E700000010024000127A00000000208E
:1025900000093D0010B50F48016841F001010160DC
:1025A00041680D4A1140416001680C4A11400160C8
:1025B000016821F480210160416821F4FE0141603D
:1025C0004FF41F018160FFF72FFF05494FF00060B6
:1025D000086010BD001002400000FFF8FFFFF6FE8B
:1025E00008ED00E030B589B001210846FFF7EAFAAE
:1025F0006846FFF727FB02981C49496811F4E06F11
:1026000000D040001A49B0FBF1F000B90120401E93
:10261000ADF8180040F2E730ADF81C000024ADF82A
:102620001E40ADF81A404FF0804506A9284600F03C
:102630008FF80121284600F031F801221146284682
:1026400000F047F81C218DF814108DF815408DF816
:10265000164001218DF8171005A8FEF7CBFF0121C8
:10266000284600F01EF809B030BD000000100240FE
:1026700040420F0010B501218C07204600F01DF8E4
:10268000002807D00121204600F008F80248C16860
:10269000491CC16010BD00003C000020C9430182FC
:1026A0007047002904D0018841F001010180704782
:1026B000018821F001010180704702460020138A41
:1026C0000B4092890A40002B02D0002A00D0012042
:1026D0007047002A03D082890A4382817047828929
:1026E0008A4382817047000070B5028C22F48052C8
:1026F0000284058C8288838B23F4E04323F44076A4
:102700000C884FF6FF7303EA0424344325F4005584
:102710000E8903EA06362E434D8803EA0535354314
:10272000094EB04202D0094EB04205D122F4804693
:102730008A8903EA8212324382808483C988A0F89E
:102740004010058470BD0000002C014000340140A1
:1027500030B502881B4C1C4DA0420DD0A8420BD0B6
:10276000B0F1804F08D0194B984205D0184B9842D1
:1027700002D0184B984203D122F070034A881A43C2
:10278000154B984206D0154B984203D022F4407363
:10279000CA881A4302808A8882850A880285A042F4
:1027A0000AD0A84208D00E4A904205D00D4A904265
:1027B00002D00D4A904201D1097A0186012181821D
:1027C00030BD0000002C01400034014000040040F6
:1027D00000080040000C00400010004000140040C1
:1027E00000400140004401400048014010B500F0A5
:1027F00005F90F4C217A032914D3E16A411AB1F586
:102800007A7F0FD3E062FEF7E1FAFDF7D9FF50B10E
:10281000FDF7F4FE38B100202072206940F2034138
:102820008843206110BD206940F48060206110BDA4
:102830003C00002010B50F4800880F4910F00F0F22
:102840004FF0010300D04B7010F02F0F0CD0094A4D
:10285000121D1288D2B2800606D54888401CC0B22C
:102860008C88A04201D10B7010BD044B4C881A55C6
:10287000488010BD00380140280000208000002062
:10288000002904D0818941F40051818170478189F8
:1028900021F40051818170470246002012880A42CB
:1028A00000D00120704710B540F66A13C1F34213FF
:1028B00001F01F040121A140012B07D0022B07D0FA
:1028C00014303AB102680A43026010BD0C30F8E7D8
:1028D0001030F6E702688A43026010BD30B585B05B
:1028E00004460D46208A4CF6FF710840E9880143F2
:1028F0002182A0894EF6F3110840A9882A89114344
:102900006A8902431143A181A08A4FF6FF41084022
:10291000A9890143A1826846FFF794F91D488442C2
:1029200001D1039800E00298A189090408D500EBC1
:10293000C00101EB001029684900B0FBF1F007E08D
:1029400000EBC00101EB001029688900B0FBF1F039
:102950006422B0FBF2F109010B096FF018056B431B
:1029600000EB8300A3891D044FF0320307D503EB6E
:10297000C000B0FBF2F000F00700084306E003EBF4
:102980000010B0FBF2F000F00F000843208105B00A
:1029900030BD000000380140C1F30801818070475C
:1029A00010B500F08FF90849012806D0022807D099
:1029B000042801D10320487210BD0120487210BDC7
:1029C0000220487210BD00003C00002010B50A4CE7
:1029D0002079002806D000F011F8616A401AB0F59D
:1029E000FA6F04D9206940F04000206110BD2069D1
:1029F00020F04000206110BD3C0000200148C0686C
:102A0000704700003C000020FEE710B545F255502D
:102A1000FEF7F0F90620FEF7E1F940F2E240FEF79A
:102A2000E3F9FEF7D3F9BDE81040FEF7C7B900009F
:102A3000004870477C00002002E008C8121F08C14F
:102A4000002AFAD170477047002001E001C1121F2F
:102A5000002AFBD1704700000EB5FFF75DFD4FF473
:102A6000A060FEF7F9FDFEF775F8FFF7BBFDFFF775
:102A700033FC61A0FFF7BEFCFEF7CCFE65A0FFF7BC
:102A8000B9FCFEF7BDF969A0FFF7B4FC6CA0FFF735
:102A9000B1FC6E480068FFF703FC63A0FFF7AAFCD7
:102AA0006BA0FFF7A7FC70A0FFF718FDFDF714FF60
:102AB000FDF786FE714D00285FD0FDF79FFD0028D1
:102AC0005BD06FA0FFF796FC71A0FFF707FDFFF743
:102AD0009CFFFFF77BFFFFF791FFA0F5FA70A8625C
:102AE000FFF78CFFA0F57A702863FFF719F9FFF75D
:102AF000B3FB4FF47A770026FEF768F9FEF7DAF8B1
:102B0000FFF74EFFFFF762FFFFF70AF9FFF766FADC
:102B1000394601A8FDF70CFE0446012C38D0022CE2
:102B200046D02E72286920F003002861032C4FD074
:102B30000020E871FFF73EFA9DF80900002849D00F
:102B4000012850D0286940F480602861FFF73EFFDB
:102B5000A87868B16869401C6861FFF74FFF0146BB
:102B600028690090D5E906236869FEF71FFFAE705B
:102B7000FEF7A0F8FFF7D4F8BEE7286940F48060BC
:102B8000286146A0FFF736FC49A0FFF7A7FC9EE7A7
:102B9000286940F001002861287AFF2801D2401CF2
:102BA0002872FFF723FEFFF7BBF8FFF717FAA3E73A
:102BB000286940F002002861287AFF2801D2401CD1
:102BC0002872FFF713FEFFF7ABF8FFF707FA93E75A
:102BD0000120AEE7032C04D000210198FEF756FF38
:102BE000B4E70121F9E7032C04D000210198FEF796
:102BF00089FFABE70121F9E70D0A505245535355C0
:102C000052454F535F424F4F542C312E302E350DCD
:102C10000A000000424F4F545F53544147452C4C2B
:102C200043445F424547494E0D0A0000424F4F540E
:102C30005F53544147452C4C43445F4F4B0D0A00B2
:102C4000434C4F434B5F485A2C00000000000020CB
:102C5000424F4F545F53544147452C4144435F42D8
:102C60004547494E0D0A000041444320494E49540E
:102C700049414C495A494E47000000003C000020A1
:102C80004144435F494E49542C4F4B0D0A0000000C
:102C90004144432052454144590000004144435FB0
:102CA000494E49542C4552524F520D0A0000000023
:102CB00041444320434F4E464947204552524F52CC
:102CC0000000000010B5FEF715F980F0FF01034A7F
:102CD000507821EA00001070517010BD34000020BF
:102CE0007FBFDFEFF7FBFDFE8040201008040201EC
:102CF000FFFEFCF8F0E0C080000103070F1F3F7FDC
:102D0000FF7F3F1F0F07030180C0E0F0F8FCFEFFCC
:102D10008040C020A060E0109050D030B070F0082B
:102D20008848C828A868E8189858D838B878F804A7
:102D30008444C424A464E4149454D434B474F40CCB
:102D40008C4CCC2CAC6CEC1C9C5CDC3CBC7CFC024D
:102D50008242C222A262E2129252D232B272F20ACB
:102D60008A4ACA2AAA6AEA1A9A5ADA3ABA7AFA0647
:102D70008646C626A666E6169656D636B676F60E6B
:102D80008E4ECE2EAE6EEE1E9E5EDE3EBE7EFE01F0
:102D90008141C121A161E1119151D131B171F1099B
:102DA0008949C929A969E9199959D939B979F90517
:102DB0008545C525A565E5159555D535B575F50D3B
:102DC0008D4DCD2DAD6DED1D9D5DDD3DBD7DFD03BD
:102DD0008343C323A363E3139353D333B373F30B3B
:102DE0008B4BCB2BAB6BEB1B9B5BDB3BBB7BFB07B7
:102DF0008747C727A767E7179757D737B777F70FDB
:102E00001C000022180000221400002210000022E2
:102E10000C00002208000022040000220000002212
:102E200000000000000000000000000000000000A2
:102E30000000000000000000000000000000000092
:102E40000000000000000000000000000000000082
:102E50000000000000000000000000000000000072
:102E6000C003C003C003C003C003C00380038001CC
:102E7000800180018001800180018001000000004C
:102E800000000000C003C003C003000000000000F9
:102E90000000C039E03DF01E700E380718038C01A9
:102EA0000000000000000000000000000000000022
:102EB0000000000000000000000000000000000012
:102EC0000000000000000000000000000000000002
:102ED00030183018301830183018FE7FFE7F300C54
:102EE000300C300C380C180C180C180CFE7FFE7FC0
:102EF000180618061806180618060000000000003C
:102F00000000000080018001C007F01DB039B83911
:102F1000B83DB83DF801F001F001E0038007800FF3
:102F2000801F803D8039BC39BC399C399C19B80F51
:102F3000E007800180018001000000000000000027
:102F40001C18360C770C770C770677067703770317
:102F5000F701B601FC1CC036C07760776077307728
:102F60003077187718770C360C1C00000000000032
:102F70000000000000000000F001B8039C039C0367
:102F80009C039C039C01FC01F800387E7C187E1891
:102F90007618E70CE70CC70DC70787070EC79EEF2B
:102FA000F87C00000000000000003C007C007C0079
:102FB00070007000300038000C00000000000000BD
:102FC0000000000000000000000000000000000001
:102FD00000000000000000000000000000000000F1
:102FE000000000300018000C000E0006000700036F
:102FF00080038003C001C001C001C001C001C00145
:10300000C001C001C0018003800300030007000667
:10301000000E000C00180030000006000C00180024
:103020003800300070006000E000E000C001C00126
:10303000C001C001C001C001C001C001C001E00069
:10304000E000600070003000380018000C0006003E
:1030500000000000000000000000000000008003ED
:10306000C00380038E71BE79FC3FF00F8001F00F2A
:10307000FC3F9E798E71C001C003C00100000000BA
:103080000000000000000000000000000000000040
:1030900000000000000080038003800380038003A1
:1030A00080038003FEFF800380038003800380038E
:1030B000800380030000000000000000000000000A
:1030C0000000000000000000000000000000000000
:1030D00000000000000000000000000000000000F0
:1030E000000000000000000000003C007C007C00AC
:1030F0007000700030003800000000000000000088
:1031000000000000000000000000000000000000BF
:1031100000000000FE7F0000000000000000000032
:10312000000000000000000000000000000000009F
:10313000000000000000000000000000000000008F
:10314000000000000000000000000000000000007F
:103150000000000000000000000038007C007C003F
:103160003800000000000000000000000060003097
:10317000003000380018001C000C000E000600078C
:10318000000380038001C001C000E0006000700007
:103190003000380018001C000C000C000600000075
:1031A0000000000000000000E0037006380E1C1C48
:1031B0001C1C1C180E380E380E380E380E380E38FF
:1031C0000E380E380E380C181C1C1C1C380E7006DD
:1031D000E00300000000000000000000000000000C
:1031E00000038003F00380038003800380038003D7
:1031F00080038003800380038003800380038003B7
:103200008003800380038007F01F0000000000009F
:103210000000000000000000E007301E181C0C3801
:103220000C381C381C380038001C000C000E00073D
:103230008003C001E0007000303018300C38FC3FD3
:10324000FC1F000000000000000000000000000063
:10325000F003180F1C0E1C1C1C1C1C1C001C000E58
:103260000007C003000E001C0018003800381C388E
:103270001C381C381C1C180EF00700000000000051
:103280000000000000000000000E000E000F000F04
:10329000800FC00EC00E600E700E300E180E180E8D
:1032A0000C0E060EFE7F000E000E000E000E000E2D
:1032B000C07F0000000000000000000000000000CF
:1032C000F03FF83F18001800180018001800180008
:1032D000D807781E381C00380038003800381C38F1
:1032E0001C380C1C0C1C380EE0070000000000000D
:1032F0000000000000000000C007701C381C181CF3
:103300001C000C000C000E00EE077E0E1E1C1E386A
:103310000E380E380E380E381C381C18381C780E33
:10332000E0070000000000000000000000000000B6
:10333000F83FF83F1C180C0C0C0C000600060003AC
:103340000003800180018001C000C000C000E000D7
:10335000E000E000E000E000E0000000000000000D
:103360000000000000000000F007380E1C1C0E38A2
:103370000E380E381E383C1C780CF007F007180F7A
:103380001C1E0E3C0E380E380E380E381C1C380E23
:10339000F007000000000000000000000000000036
:1033A000F003380E1C0C1C1C0E180E380E380E388C
:1033B0000E380E3C1C3C3C3FF03B0038001C001C0F
:1033C000001C1C0E1C0E1C07F80100000000000071
:1033D00000000000000000000000000000000000ED
:1033E000000000000000C003C003C0030000000094
:1033F000000000000000000000000000C003C00347
:10340000C0030000000000000000000000000000F9
:1034100000000000000000000000000000000000AC
:10342000C003C00300000000000000000000000016
:10343000000000000000C003C0038003C001C00101
:10344000000000000000000000300018000C000622
:1034500000038001C0006000300018000C0018005C
:1034600030006000C000800100030006000C00185E
:10347000003000000000000000000000000000001C
:103480000000000000000000000000000000FE7FBF
:1034900000000000000000000000FE7F00000000AF
:1034A000000000000000000000000000000000001C
:1034B00000000000000000000C0018003000600058
:1034C000C000800100030006000C00180030001846
:1034D000000C000600038001C000600030001800EE
:1034E0000C000000000000000000000000000000D0
:1034F000C00F701C38381C701C703C703C703C70E5
:103500000038001C000F80038001800180018001D1
:1035100000000000C003C003C00300000000000062
:103520000000000000000000C007701C3838183090
:103530001C7F9C7F8E7DCE7DCE6DEE6CEE6CEE6C36
:10354000EE6EEE3EEE3FCC1D1C6018303830701C25
:10355000E007000000000000000000000000000084
:10356000C001C001E001E003E00360036003300735
:10357000300730073006180EF80F180E180E0C1C06
:103580000C1C0C1C0C1C0E3C1F7E000000000000DC
:103590000000000000000000FF071C1E1C3C1C383F
:1035A0001C381C381C381C1C1C0EFC071C1C1C382E
:1035B0001C301C701C701C701C701C701C381C1C77
:1035C000FF0F0000000000000000000000000000ED
:1035D000C007703C383038701C601C600E000E0054
:1035E0000E000E000E000E000E000E000E001C60FD
:1035F0001C601C303830701CE00700000000000028
:103600000000000000000000FF031C0F1C1C1C3801
:103610001C381C381C701C701C701C701C701C70BA
:103620001C701C701C701C381C381C181C1C1C0FB7
:10363000FF03000000000000000000000000000088
:10364000FE3F38383830386038603800380C380C75
:10365000380EF80F380E380C380C380038003800A7
:103660003860386038303838FE3F00000000000015
:103670000000000000000000FE3F3838383038609D
:1036800038603800380C380C380CF80F380E380C0D
:10369000380C38003800380038003800380038005E
:1036A000FE0000000000000000000000000000001C
:1036B000C007701C381818381C301C300C000E0065
:1036C0000E000E000E000E000EFE0E380E381C38D6
:1036D0001C3818383838703CE00F0000000000003B
:1036E00000000000000000007FFE1C381C381C3861
:1036F0001C381C381C381C381C38FC3F1C381C3843
:103700001C381C381C381C381C381C381C381C3819
:103710007FFE00000000000000000000000000002C
:10372000F83F8003800380038003800380038003CD
:103730008003800380038003800380038003800371
:103740008003800380038003F83F00000000000036
:103750000000000000000000F07F000700070007E5
:103760000007000700070007000700070007000721
:103770000007000700070007000700070007000711
:1037800000071E071E039E0100000000000000004D
:103790007F3F1C0C1C061C071C039C019C01DC00C9
:1037A000FC00FC01FC01BC039C031C071C071C0E55
:1037B0001C0E1C0C1C1C1C3C7F7E0000000000002A
:1037C0000000000000000000FE0038003800380053
:1037D0003800380038003800380038003800380029
:1037E00038003800380038003860386038303838F1
:1037F000FE3F00000000000000000000000000008C
:103800001FF81C3C3C3C3C3C3C3C3C3E3C3E7C3E33
:103810007C3E7C3E7C3B6C3BEC3BEC3BEC3BEC393C
:10382000CC39CC39CC39CC38DEFE000000000000A9
:1038300000000000000000001FFC3C303C307C30E9
:103840007C30FC30EC30EC31CC31CC338C338C37E9
:103850000C370C3F0C3E0C3E0C3C0C3C0C380C382E
:103860003F300000000000000000000000000000E9
:10387000E007700E381C1C381C380C300E700E70AF
:103880000E700E700E700E700E700E700E700C308A
:103890001C381838381C700EE007000000000000CB
:1038A0000000000000000000FE0F381C383838709F
:1038B00038703870387038703838381CF80F380065
:1038C0003800380038003800380038003800380038
:1038D000FE000000000000000000000000000000EA
:1038E000E007700E381C1C381C380C300E700E703F
:1038F0000E700E700E700E700E700E700E70EC3139
:103900003C3B3C3F381F700EE00F006E003C003C1B
:103910000000000000000000FE07381E381C383888
:103920003838383838383838381C380EF807380303
:10393000380738073806380E380E381C381C381C43
:10394000FE78000000000000000000000000000001
:10395000F01B181E1C1C0E180E180E000E003E0048
:103960007C00F001E007000F001E003C0038063824
:1039700006380E380C1C3C0EEC070000000000005E
:103980000000000000000000FE3FCE31C671C361A0
:10399000C361C001C001C001C001C001C001C001BC
:1039A000C001C001C001C001C001C001C001C0010F
:1039B000F007000000000000000000000000000010
:1039C0007FFC1C301C301C301C301C301C301C3068
:1039D0001C301C301C301C301C301C301C301C3087
:1039E0001C301C301818780CE007000000000000A4
:1039F00000000000000000003F7C1C181C181C1870
:103A00001C18380C380C380C380670067006700616
:103A100070036003E003E003E001E001C001C000C7
:103A2000C0000000000000000000000000000000D6
:103A3000DFFF8E638E638E338C338C339C339C33E9
:103A4000DC33DC1FD81FD81FD81F781F781E780ED4
:103A5000780E700E300E300E3006000000000000B0
:103A600000000000000000007E7E38183818300C7E
:103A7000700C6006E006E003C003C0018001C003D3
:103A8000C00360076007600E300E301C181C183C25
:103A90003E7E00000000000000000000000000006A
:103AA0003F7E1E381C181C18380C380C380670065F
:103AB0007006E003E003E001C001C001C001C001E5
:103AC000C001C001C001C001F007000000000000FB
:103AD0000000000000000000F87F783818381C1C37
:103AE0000C1C000E000E0007000380038001C001C3
:103AF000C000E00070007000386038601C301C3876
:103B0000FE3F0000000000000000C03FC000C000F9
:103B1000C000C000C000C000C000C000C000C000A5
:103B2000C000C000C000C000C000C000C000C00095
:103B3000C000C000C000C000C000C000C03F000006
:103B40000000000000000C001C00180038003000CD
:103B5000700060006000C000C00080018001800330
:103B60000003000300060006000C000C00180018FB
:103B700000180030003000600000FC030003000368
:103B8000000300030003000300030003000300031D
:103B9000000300030003000300030003000300030D
:103BA000000300030003000300030003FC03000004
:103BB0000000C007E00E3018000000000000000008
:103BC00000000000000000000000000000000000F5
:103BD00000000000000000000000000000000000E5
:103BE00000000000000000000000000000000000D5
:103BF00000000000000000000000000000000000C5
:103C000000000000000000000000000000000000B4
:103C100000000000000000000000000000000000A4
:103C200000007C00E00080010000000000000000B7
:103C30000000000000000000000000000000000084
:103C40000000000000000000000000000000000074
:103C50000000000000000000000000000000000064
:103C60000000000000000000000000000000F0075D
:103C7000380E1C1C1C1C001C801FF01C3C1C1E1C35
:103C80000E1C0E1C0E7C1C7FF8390000000000008A
:103C9000000000000000000018001F001C001C00B5
:103CA0001C001C001C00DC077C1C3C1C3C381C3825
:103CB0001C381C381C381C381C381C181C1C3C0EAA
:103CC000EC07000000000000000000000000000001
:103CD0000000000000000000000000000000C0071D
:103CE000700C381C381C1C1C1C001C001C001C0008
:103CF0001C0038303818701CE0070000000000007D
:103D000000000000000000000018001F001C001C44
:103D1000001C001C001CE01F701E381C381C1C1CE2
:103D20001C1C1C1C1C1C1C1C1C1C1C1C381E707FFE
:103D3000E00D000000000000000000000000000096
:103D40000000000000000000000000000000E0078C
:103D5000700E381C18381C381C38FC3F1C001C0026
:103D60001C0038303818701CC0070000000000002C
:103D700000000000000000000000003FC071E07083
:103D8000E000E000E000FE1FE000E000E000E000F6
:103D9000E000E000E000E000E000E000E000E00023
:103DA000FC0F000000000000000000000000000008
:103DB0000000000000000000000000000000E077AC
:103DC000707E381C381C381C381C381C700EF007EC
:103DD0003800F800F01F383E1C381C381C38381CDE
:103DE000000000000000000030003E0038003800F5
:103DF000380038003800B80FF81E781C381C381C02
:103E0000381C381C381C381C381C381C381C381C12
:103E1000FE7F000000000000000000000000000025
:103E20000000C007C0070000000000000003F80306
:103E3000800380038003800380038003800380036A
:103E40008003800380038003F83F0000000000002F
:103E500000000000000000000000003E003E0000E6
:103E6000000000000018801F001C001C001C001C2B
:103E7000001C001C001C001C001C001C001C001C62
:103E8000001C001C1C0E1C070000000000000000AD
:103E900030003E0038003800380038003800383E26
:103EA000380C38063803B803B801F8037807380728
:103EB000380E380C381C3838FE7C0000000000003A
:103EC00000000000000000000003F80380038003EE
:103ED00080038003800380038003800380038003CA
:103EE00080038003800380038003800380038003BA
:103EF000F83F00000000000000000000000000008B
:103F00000000000000000000000000000000FE3D76
:103F1000BC779C739C739C739C739C739C739C7305
:103F20009C739C739C739C73FEFF00000000000058
:103F30000000000000000000000000000000000081
:103F4000000000000000B00FFE0E781C381C381C6A
:103F5000381C381C381C381C381C381C381C381CC1
:103F6000FE7F0000000000000000000000000000D4
:103F70000000000000000000000000000000E0075A
:103F8000781E18381C380E700E700E700E700E7081
:103F90000E701C381C38381CE007000000000000C0
:103FA0000000000000000000000000000000000011
:103FB000000000000000B00FFE1C78383870387028
:103FC0003870387038703870387038387838F81C75
:103FD000B80F380038003800000000000000000072
:103FE0000000000000000000000000000000E01BD6
:103FF000701E381C181C1C1C1C1C1C1C1C1C1C1C93
:104000001C1C1C1C381C701EE01F001C001C001C0B
:1040100000000000000000000000000000000000A0
:10402000000000000000703E7E77F071F000F000AC
:104030007000700070007000700070007000700000
:10404000FE0700000000000000000000000000006B
:104050000000000000000000000000000000E03749
:10406000703C383838303800F000E007801F003EE0
:104070000C380C381C383C1CEC0F00000000000011
:10408000000000000000000000000000C000C000B0
:10409000C000E000F000FE1FE000E000E000E000F3
:1040A000E000E000E000E000E000E030E030C019B7
:1040B000800F000000000000000000000000000071
:1040C00000000000000000000000000018181F1F82
:1040D0001C1C1C1C1C1C1C1C1C1C1C1C1C1C1C1C20
:1040E0001C1C1C1C1C1E387FF00D00000000000072
:1040F00000000000000000000000000000000000C0
:104100000000000000007E7C383838183818300C69
:10411000700C700CE006E006E003C003C003C001B1
:10412000800100000000000000000000000000000E
:104130000000000000000000000000000000FFFB85
:104140008E718C318C339C33DC1BD81BF81FF81F0D
:10415000780F700E700E700E300600000000000028
:10416000000000000000000000000000000000004F
:10417000000000000000FC7E7018700CE00EE006ED
:10418000C00380038003C0076006700E301C381C1B
:104190007E7E000000000000000000000000000023
:1041A00000000000000000000000000000007E7E13
:1041B0003818381C300C700C70066006E006E003FE
:1041C000C003C003C00180018001C000C000DC004A
:1041D00000000000000000000000000000000000DF
:1041E000000000000000FC1F1C1C0C0E0C07000748
:1041F0008003C001C001E0007030703038381C1CF2
:10420000FC1F00000000000000000078001C000EF1
:10421000000E000E000E000E000E000E000E000E2E
:10422000000E8007C0010007000E000E000E000EF9
:10423000000E000E000E000E000E001C00780000A4
:104240008003800380038003800380038003800356
:104250008003800380038003800380038003800346
:104260008003800380038003800380038003800336
:10427000800380038003800300001E00380070006C
:1042800070007000700070007000700070007000AE
:104290007000E0008003E0007000700070007000AB
:1042A0007000700070007000700038001E00000088
:1042B000000000000000000000000000E0010E000F
:1042C000B0C37F0038F3C007307B8007F0390007A8
:1042D000001C0006001C0006000E0006000E000078
:1042E000000E0000000E0000000E0000000E000096
:1042F000000E0000000E0000001C0000001C000664
:10430000003C0003003880030070C00100E07F0023
:1043100000801F00000000000000000000000000FE
:10432000101E3801207E2000202E00081A32C00105
:10433000207E20003843000800000000000000003C
:10434000000000000000000000000000000000006D
:10435000000000000000000000000000000000005D
:10436000000000000000000000000000000000004D
:10437000000000000000000000000000000000003D
:10438000000000000000000000000000000000002D
:10439000000000000000000000000000000000001D
:1043A000000000000000000000000000000000000D
:1043B00000000000000000000000000000000000FD
:1043C00000000000000000000000000000000000ED
:1043D00000000000000000000000000000000000DD
:1043E00000000000000000000000000000000000CD
:1043F00000000000000000000000000000000000BD
:1044000000000000000000000000000000000000AC
:10441000000000000070000000780000007800003C
:1044200000780000007800000078000000780000AC
:10443000007800000078000000780000007800009C
:10444000007000000030000000300000003000006C
:10445000003000000030000000300000003000009C
:10446000003000000030000000300000003000008C
:10447000003000000000000000000000000000000C
:1044800000000000000000000000000000780000B4
:1044900000FC000000FC000000FC000000780000B0
:1044A000000000000000000000000000000000000C
:1044B00000000000000000000000000000000000FC
:1044C00000383800007C7C00007E7E00007E7E008C
:1044D000003F3F00808F0F0080870700C0C30300AC
:1044E000C0C10100E0E0000070700000303000004A
:1044F00000000000000000000000000000000000BC
:1045000000000000000000000000000000000000AB
:10451000000000000000000000000000000000009B
:10452000000000000000000000000000000000008B
:10453000000000000000000000000000000000007B
:10454000000000000000000000000000000000006B
:10455000000000000000000000000000000000005B
:10456000000000000000000000000000000000004B
:10457000000000000000000000000000000000003B
:10458000000000000000000000000000000000002B
:104590000000000000071C0000071C0000071C00B2
:1045A00000031C0000030C0000030C0080030C003F
:1045B00080030C00FCFFFF00FCFFFF00FCFFFF007E
:1045C000FCFFFF0080030E0080030E0080030E003E
:1045D00080010E0080010E00C0010E00C0010E001F
:1045E000C0010E00C0010600C0010600FCFFFF0074
:1045F000FCFFFF00FCFFFF00FCFFFF00C000070006
:10460000C0000700E0000700E0000700E00007002E
:10461000E0000700E0000700E0000700E0000700FE
:10462000000000000000000000000000000000008A
:10463000000000000000000000000000000000007A
:10464000000000000000000000700000007000008A
:10465000007000000070000000FC030000770F00F5
:1046600080731E00C0711C00E0703C00F0703C00C4
:10467000F0703E00F0703E00F0701E00F07100001F
:10468000E0730000E0770000C07F0000807F000042
:10469000007F000000FE000000FC010000F00300AD
:1046A00000F0070000F00F0000701F0000701F00F6
:1046B00000703E0000703E00F0703C00F8703C005E
:1046C000F8703C00F8703C0078703C0070701C0082
:1046D00070701E00E0700E00C0F3070000FE0100C5
:1046E000007000000070000000700000007000000A
:1046F000007000000000000000000000000000004A
:1047000000000000000000000000000000000000A9
:1047100000000000E0031C0038071C0038070C00F4
:104720001C0E0E001C0E06001E1E07001E1E07009B
:104730001E1E03001E9E03001E9E01001EDE0100C1
:104740001EDE01001EDE00001CEE00001C6E0000DC
:104750003C6F000078770000F0331E0000B877004F
:104760000098730000D8E30000DCE10000ECE101F8
:1047700000EEE10100E6E10100E6E10100E7E10110
:1047800000E3E10180E3E10180E1E10180C1E100BA
:10479000C0C1E100C080F300E080730060003E0013
:1047A0000000000000000000000000000000000009
:1047B00000000000000000000000000000000000F9
:1047C00000000000000000000000000000000000E9
:1047D00000000000003F0000807B0000C07300006C
:1047E000C0F10000E0F10000E0F10000E0F10000A5
:1047F000E0F10000E0F10000E0F10000E0710000F5
:10480000E07B0000E03B0000C03F0000C00F000064
:10481000C0070000C0C77F00E0071E00F00F0E00B9
:10482000380F0E003C1F0E001C1F0E001C1E060041
:104830001E3E06001E3C06001E7C07001EF80300FC
:104840001EF803001EF003003CE003003CE083017F
:1048500078E0C701F8F0CF00F03FFF00C00F3C0048
:104860000000000000000000000000000000000048
:104870000000000000000000000000000000000038
:10488000E0010000F0030000F0070000F007000066
:10489000E0070000C0070000800700008003000060
:1048A00080030000C0010000E00100007000000073
:1048B00038000000000000000000000000000000C0
:1048C00000000000000000000000000000000000E8
:1048D00000000000000000000000000000000000D8
:1048E00000000000000000000000000000000000C8
:1048F00000000000000000000000000000000000B8
:1049000000000000000000000000000000000000A7
:104910000000000000000000000000000000000097
:104920000000000000000000000000000000000087
:104930000000000000000000000000000000000077
:104940000000E00000007000000078000000380067
:1049500000001C0000000E0000000F000000070017
:104960000080030000C0030000C0010000E001005F
:1049700000E0010000F0000000F0000000F0000086
:1049800000F00000007800000078000000780000CF
:104990000078000000780000007800000078000037
:1049A00000780000007800000078000000F00000AF
:1049B00000F0000000F0000000F0000000E0010046
:1049C00000E0010000C0010000C0030000800300FF
:1049D0000080070000000F0000000E0000001C0017
:1049E00000003C00000078000000F0000000E00043
:1049F00000000000000000000000000000000000B7
:104A00001C0000003800000078000000700000006A
:104A1000E0000000C0010000C003000080070000AB
:104A200000070000000F0000000E0000001E000044
:104A3000001E0000003C0000003C0000003C0000A4
:104A4000003C0000007800000078000000780000C2
:104A50000078000000780000007800000078000076
:104A6000007800000078000000780000003C0000A2
:104A7000003C0000003C0000003C0000001E000064
:104A8000001E0000000E0000000F000000070000E4
:104A900080070000C0030000C0010000E00000002B
:104AA000F0000000780000003C0000001C00000046
:104AB00000000000000000000000000000000000F6
:104AC00000000000000000000000000000000000E6
:104AD00000000000000000000000000000000000D6
:104AE000000000000078000000780000007800005E
:104AF000007800000078000038787000FC78FC0036
:104B0000FC71FE00F8337F00E0B73F0080FF070034
:104B100000FE01000030000000FE010080FF0700E1
:104B2000F0B73F00F8337F00FC39FE00FC78FC0052
:104B30003C78F00000780000007800000078000069
:104B40000078000000780000000000000000000075
:104B50000000000000000000000000000000000055
:104B60000000000000000000000000000000000045
:104B70000000000000000000000000000000000035
:104B80000000000000000000000000000000000025
:104B90000000000000000000000000000000000015
:104BA0000000000000000000007000000070000025
:104BB0000070000000700000007000000070000035
:104BC0000070000000700000007000000070000025
:104BD00000700000FCFFFF01FCFFFF0100700000FF
:104BE0000070000000700000007000000070000005
:104BF00000700000007000000070000000700000F5
:104C000000700000007000000000000000000000C4
:104C10000000000000000000000000000000000094
:104C20000000000000000000000000000000000084
:104C30000000000000000000000000000000000074
:104C40000000000000000000000000000000000064
:104C50000000000000000000000000000000000054
:104C60000000000000000000000000000000000044
:104C70000000000000000000000000000000000034
:104C80000000000000000000000000000000000024
:104C90000000000000000000000000000000000014
:104CA0000000000000000000000000000000000004
:104CB00000000000000000000000000000000000F4
:104CC00000000000E0010000F0030000F007000019
:104CD000F0070000E0070000C007000080070000A8
:104CE0008003000080030000C0010000E00100001C
:104CF000700000003800000000000000000000000C
:104D000000000000000000000000000000000000A3
:104D10000000000000000000000000000000000093
:104D20000000000000000000000000000000000083
:104D30000000000000000000000000000000000073
:104D40000000000000000000000000000000000063
:104D500000000000FCFFFF00FCFFFF00000000005F
:104D60000000000000000000000000000000000043
:104D70000000000000000000000000000000000033
:104D80000000000000000000000000000000000023
:104D90000000000000000000000000000000000013
:104DA0000000000000000000000000000000000003
:104DB00000000000000000000000000000000000F3
:104DC00000000000000000000000000000000000E3
:104DD00000000000000000000000000000000000D3
:104DE00000000000000000000000000000000000C3
:104DF00000000000000000000000000000000000B3
:104E000000000000000000000000000000000000A2
:104E10000000000000000000000000000000000092
:104E20000000000000000000000000000000000082
:104E30000000000000000000000000000000000072
:104E40000000000000000000F0010000F803000076
:104E5000F8030000F8030000F8030000F001000070
:104E60000000000000000000000000000000000042
:104E70000000000000000000000000000000000032
:104E8000000000000000C0000000E0000000600022
:104E90000000700000003000000038000000180022
:104EA00000001C0000000C0000000E0000000600C6
:104EB0000000060000000300000003000080030063
:104EC0000080010000C0010000C0000000E0000000
:104ED000006000000070000000300000003800009A
:104EE00000180000001C0000000C0000000E000074
:104EF000000600000007000000030000000300009F
:104F00008001000080010000C0010000C00000001E
:104F1000E0000000600000007000000030000000B1
:104F200038000000180000001C0000000C00000009
:104F30000000000000000000000000000000000071
:104F40000000000000000000000000000000000061
:104F5000000000000000000000FE000000C7030089
:104F6000C0030700C0010F00E0000E00F0001E00AB
:104F7000F0001C0078003C0078003C0078003C0009
:104F8000380038003C0078003C0078003C00780095
:104F90003C0078003C0078003C0078003C00780041
:104FA0003C0078003C0078003C0078003C00780031
:104FB0003C0078003800380078003C0078003C0065
:104FC00078003C00F0001C00F0001E00E0000E0025
:104FD000C0010700C083070000C7030000FE0000F7
:104FE00000000000000000000000000000000000C1
:104FF00000000000000000000000000000000000B1
:1050000000000000000000000000000000000000A0
:1050100000000000000000000060000000700000C0
:1050200000780000C07F00000078000000780000D9
:105030000078000000780000007800000078000090
:105040000078000000780000007800000078000080
:105050000078000000780000007800000078000070
:105060000078000000780000007800000078000060
:105070000078000000780000007800000078000050
:105080000078000000780000007800000078000040
:10509000007800000078000000FC0000C0FF1F0046
:1050A0000000000000000000000000000000000000
:1050B00000000000000000000000000000000000F0
:1050C00000000000000000000000000000000000E0
:1050D000000000000000000000FC0300000F0F00B3
:1050E000C0031E00E0013C00E0013C00F00178003C
:1050F000F0017800F0017800F0037800F003780008
:10510000E001780000003C0000003C0000003C0092
:1051100000001E0000000F000000070000800300D8
:1051200000C0010000E00000007000000038000036
:10513000001C0000000E00000007000080030000BB
:10514000C0016000E0007000E000700070003800F6
:1051500038003C00F8FF3F00F8FF3F00F8FF3F0039
:10516000000000000000000000000000000000003F
:10517000000000000000000000000000000000002F
:10518000000000000000000000000000000000001F
:10519000000000000000000000FE010080C30700C6
:1051A000C0000F0060001E0070001E0070003C0078
:1051B000F0003C00F0003C00E0003C0000003C003F
:1051C00000001C0000001E0000000E000000070090
:1051D00000C0030000FC000000C0030000000F003E
:1051E00000001E0000003C0000003C0000003800F1
:1051F000000078000000780000007800700078005F
:10520000F8007800F8007800F8003C0078003C00D6
:1052100070001E00E0000F00C081070000FF0000CA
:10522000000000000000000000000000000000007E
:10523000000000000000000000000000000000006E
:10524000000000000000000000000000000000005E
:1052500000000000000000000000070000800700C0
:105260000080070000C0070000E0070000E0070022
:1052700000B0070000B0070000980700009C07007E
:10528000008C0700008607000087070000830700E6
:105290008083070080810700C0810700E08007004D
:1052A00060800700708007003080070038800700AA
:1052B0001C800700FCFFFF00008007000080070043
:1052C00000800700008007000080070000800700C2
:1052D000008007000080070000C00F0000FCFF00F6
:1052E00000000000000000000000000000000000BE
:1052F00000000000000000000000000000000000AE
:10530000000000000000000000000000000000009D
:105310000000000000000000E0FF3F00E0FF3F0051
:10532000E0FF3F006000000060000000600000003F
:1053300060000000600000006000000070000000DD
:10534000700000007000000070FC010070FF07009A
:10535000F0870F00F0011E00F0003E0070003C00DE
:1053600000003C0000007800000078000000780099
:10537000000078000000780070007800F8007800E5
:10538000F8007800F8003C0078003C0070001C0039
:1053900070001E00E0000F008083070000FE010087
:1053A00000000000000000000000000000000000FD
:1053B00000000000000000000000000000000000ED
:1053C00000000000000000000000000000000000DD
:1053D000000000000000000000F80300000E0700BD
:1053E00080030F00C0011F00E0001F00E0001F004D
:1053F00070000E00700000007800000078000000CF
:1054000038000000380000003CFC01003CFF0700B1
:10541000BC870F00FC011E00FC003E00FC003C00AD
:105420007C003C003C0078003C0078003C007800A8
:105430003C0078003C007800380078007800780064
:105440007800780078003800F0003C00F0001C0084
:10545000E0011C00C0030E008087070000FE010071
:10546000000000000000000000000000000000003C
:10547000000000000000000000000000000000002C
:10548000000000000000000000000000000000001C
:105490000000000000000000F0FF7F00F0FF7F0030
:1054A000F0FF3F00F000380070001C0038001C00C6
:1054B00038000E001800060000000700000003007E
:1054C000008003000080030000C0010000C0010054
:1054D00000E0000000E0000000E0000000700000BC
:1054E0000070000000780000003800000038000064
:1054F000003C0000003C0000003C0000003C0000BC
:10550000003E0000003E0000003E0000003E0000A3
:10551000003E0000003E0000003E0000001C0000B5
:10552000000000000000000000000000000000007B
:10553000000000000000000000000000000000006B
:10554000000000000000000000000000000000005B
:10555000000000000000000000FE0100808707003E
:10556000E0011E00F0003C00F0003C0078007800F4
:10557000780078007800780078007800F8007800EB
:10558000F8003800F0013C00F0031C00E00F0E00B2
:10559000C0BF070000FF010080FF0100C0F307004B
:1055A000E0E10F00F0801F0078003F0078003E002F
:1055B0003C007C003C007C003C0078003C00780013
:1055C0003C0078003C0078003800380078003C004F
:1055D000F0001C00E0010E00C083070000FE010087
:1055E00000000000000000000000000000000000BB
:1055F00000000000000000000000000000000000AB
:10560000000000000000000000000000000000009A
:10561000000000000000000000FF0000C083030045
:10562000E0010700F0000E0070001C0078001C0074
:1056300038003C003C0038003C0038003C0078005A
:105640003C0078003C0078003C0078003C0078008A
:105650007C007C0078007E00F8007E00F0807F00F7
:10566000F0C37B00C0FF7900007F780000003C00A1
:1056700000003C0000003C0000003C0000001C005A
:1056800000001E00E0000E00F0010E00F001070017
:10569000F0810700E0C10300E0E30000803F00006C
:1056A00000000000000000000000000000000000FA
:1056B00000000000000000000000000000000000EA
:1056C00000000000000000000000000000000000DA
:1056D00000000000000000000000000000000000CA
:1056E00000000000000000000000000000000000BA
:1056F00000000000000000000000000000000000AA
:10570000003C0000007E0000007E0000007E0000E3
:10571000003C00000000000000000000000000004D
:105720000000000000000000000000000000000079
:105730000000000000000000000000000000000069
:10574000000000000000000000000000003C00001D
:10575000007E0000007E0000007E0000003C000093
:105760000000000000000000000000000000000039
:105770000000000000000000000000000000000029
:105780000000000000000000000000000000000019
:105790000000000000000000000000000000000009
:1057A00000000000000000000000000000000000F9
:1057B00000000000000000000000000000000000E9
:1057C000000000000000000000FC000000FC0000E1
:1057D00000FC000000FC00000000000000000000D1
:1057E00000000000000000000000000000000000B9
:1057F00000000000000000000000000000000000A9
:105800000000000000000000000000000000000098
:1058100000FC000000FC000000FC000000FC000098
:1058200000F0000000780000007800000038000060
:10583000001C00000000000000000000000000004C
:105840000000000000000000000000000000000058
:1058500000000000000030000000780000003C0064
:1058600000001E0000000F000080070000C00300C1
:1058700000E0010000F0000000780000001C0000C3
:10588000000E00000007000080030000C0010000BF
:10589000E000000070000000380000007000000010
:1058A000E0000000C00100008003000000070000CD
:1058B000000E0000001C00000078000000F0000056
:1058C00000E0010000C003000080070000000F009E
:1058D00000001E0000003C000000780000003000C6
:1058E00000000000000000000000000000000000B8
:1058F00000000000000000000000000000000000A8
:105900000000000000000000000000000000000097
:105910000000000000000000000000000000000087
:105920000000000000000000000000000000000077
:105930000000000000000000000000000000000067
:10594000FCFFFF00FCFFFF00000000000000000063
:105950000000000000000000000000000000000047
:105960000000000000000000FCFFFF00FCFFFF0043
:105970000000000000000000000000000000000027
:105980000000000000000000000000000000000017
:105990000000000000000000000000000000000007
:1059A00000000000000000000000000000000000F7
:1059B00000000000000000000000000000000000E7
:1059C00000000000000000000000000000000000D7
:1059D000000000003000000078000000F00000002F
:1059E000E0010000C003000080070000000F00007D
:1059F000001E0000003C00000078000000E00000F5
:105A000000C00100008003000000070000000E003D
:105A100000001C000000380000007000000038008A
:105A200000001C0000000E000000070000800300C2
:105A300000C0010000E0000000780000003C000011
:105A4000001E0000000F000080070000C0030000DF
:105A5000E0010000F00000007800000030000000CD
:105A60000000000000000000000000000000000036
:105A70000000000000000000000000000000000026
:105A80000000000000000000000000000000000016
:105A90000000000000FE010080FF0700E0830F000F
:105AA000F0001F0070003E0078003E003C007C00CB
:105AB0003C007C003C007C00FC007C00FC007C0086
:105AC000FC007C00F8007C0000003E0000003F006D
:105AD00000001F0000C0070000E0030000F001000C
